:100000000C945E000C9486000C9486000C94860080
:100010000C9486000C9486000C9486000C94860048
:100020000C9486000C9486000C9486000C94430576
:100030000C9486000C9486000C9486000C94860028
:100040000C9437070C9486000C94EE030C94310446
:100050000C9486000C9486000C9486000C94860008
:100060000C9486000C94860000000007000201003A
:100070000003040600000000000000000102040864
:100080001020408001020408102001020408102002
:10009000040404040404040402020202020203032E
:1000A0000303030300000000250028002B000000CC
:1000B0000000240027002A00B200ED0411241FBE16
:1000C000CFEFD8E0DEBFCDBF11E0A0E0B1E0EAEFB6
:1000D000F6E102C005900D92A433B107D9F722E0F2
:1000E000A4E3B1E001C01D92A831B207E1F710E02E
:1000F000CCEBD0E004C02297FE010E94680BC83B05
:10010000D107C9F70E944F030C94AB0A0C9400006E
:1001100068E070E088E391E00E94990669E070E091
:1001200085E391E00E9499066091080170910901B0
:1001300088E391E00E94D206609106017091070168
:1001400085E391E00E94D20640E855E260E070E06D
:100150008BE391E00E946C0460E171E08BE391E03D
:100160000C94090288E391E00E94FF0585E391E089
:100170000C94FF05CF93DF93CDB7DEB765970FB62D
:10018000F894DEBF0FBECDBF8BE391E00E945C030D
:10019000181619060CF094C08BE391E00E948503B9
:1001A000809334012091080130910901813651F486
:1001B0008091040190910501820F931F843B91056A
:1001C000B4F50DC0843681F480910401909105014D
:1001D000A901481B590BCA014B30510544F19093BA
:1001E00009018093080123C0833771F480910601CF
:1001F000909107012091040130910501820F931F16
:10020000883C9105A4F40FC0873789F480910601DA
:10021000909107012091040130910501821B930BFD
:100220008937910524F0909307018093060160912E
:1002300008017091090188E391E00E94D206609163
:1002400006017091070185E391E00E94D20660915A
:100250000601709107014AE0CE0101960E94B802A2
:1002600060910801709109014AE0CE010F960E9449
:10027000B80266E171E0CE0108960E948902BE01D3
:10028000615F7F4FCE0108960E9411036CE171E01F
:100290000E942403BE016F5F7F4F0E941103BC01C7
:1002A0008BE391E00E94F701CE0108960E941B02A9
:1002B000CE010F960E941B02CE0101960E941B02E6
:1002C00065960FB6F894DEBF0FBECDBFDF91CF911C
:1002D0000895CF92DF92EF92FF920F931F93CF93E7
:1002E000DF936C017A01EB01E60EF71E00E010E0EF
:1002F000CE15DF0561F06991D601ED91FC91019079
:10030000F081E02DC6010995080F191FF1CFC80132
:10031000DF91CF911F910F91FF90EF90DF90CF90E1
:1003200008956115710581F0DB010D900020E9F75A
:10033000AD0141505109461B570BDC01ED91FC9179
:100340000280F381E02D099480E090E00895AF925F
:10035000BF92CF92DF92EF92FF920F931F93CF93B2
:10036000DF937C016B01C0E0D0E000E010E0D6013B
:1003700014968D919C911597C817D90788F4D701C9
:10038000ED91FC91A080B180BE01C6010E943E03A8
:10039000682FC701F5010995080F191F2196E7CFAE
:1003A000C801DF91CF911F910F91FF90EF90DF90E7
:1003B000CF90BF90AF900895DC01ED91FC9101903A
:1003C000F081E02D09940F931F93CF93DF93EC01FD
:1003D0006DE00E94DC018C016AE0CE010E94DC012C
:1003E000800F911FDF91CF911F910F9108950F936F
:1003F0001F93CF93DF93EC010E94A7018C01CE01E4
:100400000E94E301800F911FDF91CF911F910F9107
:1004100008950F931F93CF93DF93EC010E949101F6
:100420008C01CE010E94E301800F911FDF91CF91DB
:100430001F910F910895FC01808191810C94D50941
:10044000CF93DF93EC0188819981009711F00E948E
:10045000D509198218821D821C821B821A82DF91A3
:10046000CF9108950F931F93CF93DF93EC018B01EE
:100470006F5F7F4F888199810E945408009731F007
:10048000998388831B830A8381E001C080E0DF9128
:10049000CF911F910F910895CF93DF93EC01888145
:1004A0009981892B29F08A819B818617970760F4AF
:1004B000CE010E943202882341F08C819D81892BDC
:1004C00019F4E881F981108281E0DF91CF910895DC
:1004D000EF92FF920F931F93CF93DF93EC017B0179
:1004E0008A01BA010E944C02811104C0CE010E940F
:1004F000200207C01D830C83B701888199810E9467
:10050000B70ACE01DF91CF911F910F91FF90EF902D
:100510000895FC01118210821382128215821482C6
:1005200016826115710559F0FB0101900020E9F771
:10053000AF0141505109461B570B0C9468020895B6
:10054000CF93DF93EC016115710561F0FB01019020
:100550000020E9F7AF0141505109461B570B0E949B
:10056000680202C00E942002CE01DF91CF9108955F
:100570000F931F93CF93DF93CDB7DEB762970FB67C
:10058000F894DEBF0FBECDBF8C01CB01F801118204
:1005900010821382128215821482168250E0BE01EC
:1005A0006F5F7F4F0E94BE0ABE016F5F7F4FC80121
:1005B0000E94A00262960FB6F894DEBF0FBECDBFB8
:1005C000DF91CF911F910F910895EF92FF920F93BA
:1005D0001F93CF93DF93EC017B010C811D8161158B
:1005E000710511F480E016C04115510591F0040F1A
:1005F000151FB8010E944C028823A1F3288139817C
:100600008C819D81B701820F931F0E94B70A1D83C1
:100610000C8381E0DF91CF911F910F91FF90EF90BC
:100620000895CF93DF93EC01FB01448155816081F4
:1006300071810E94E502811103C0CE010E94200257
:10064000CE01DF91CF910895CF93DF93EC01611537
:10065000710569F0FB0101900020E9F7AF014150FD
:100660005109461B570B0E94E502811103C0CE01C0
:100670000E942002CE01DF91CF910895FC012481D8
:1006800035816217730748F480819181009729F0C2
:10069000FC01E60FF71F8081089580E008950E9415
:1006A00081070E948800C8E2D4E00E94BA00209727
:1006B000E1F30E942804F9CFFC0124853585F90176
:1006C000E05CFF4F80819181329620813181821BD5
:1006D000930B8F7399270895FC0184859585FC0100
:1006E000E05CFF4F40815181329620813181421779
:1006F000530741F00190F081E02DE80FF91F808150
:1007000090E008958FEF9FEF0895FC018485958513
:10071000FC01E05CFF4F40815181329620813181A4
:100720004217530779F0A081B181A80FB91F8C91AE
:10073000208131812F5F3F4F2F73332731832083F7
:1007400090E008958FEF9FEF0895FC0181A1882329
:1007500029F0A489B5898C9186FFFBCF11A2089559
:10076000CF93DF93FC0126853785D901A05CBF4F6D
:100770008D919C91119701968F739927E901CE5B1A
:10078000DF4F4881598184179507D9F30D90BC91AB
:10079000A02DA20FB31F6C93A685B785A05CBF4F99
:1007A00011969C938E93A689B7892C9181E090E055
:1007B000078C02C0880F991F0A94E2F7282B2C930C
:1007C00081E081A30488F589E02D808180648083A5
:1007D00081E090E0DF91CF91089508951F920F92EC
:1007E0000FB60F9211242F933F934F938F939F93A4
:1007F000EF93FF938091C00082FD1CC04091C60022
:100800008091E1019091E20101968F7399272091E7
:10081000E3013091E4018217930771F0E091E10167
:10082000F091E201EF55FE4F40839093E2018093F7
:10083000E10102C08091C600FF91EF919F918F91DD
:100840004F913F912F910F900FBE0F901F901895D1
:100850008BE391E00E945C03892B11F00C94ED0373
:1008600008951F920F920FB60F9211242F933F936A
:100870008F939F93EF93FF9320919D0130919E0161
:1008800080919F019091A0012817390731F4809140
:10089000C1008F7D8093C10014C0E0919F01F09151
:1008A000A001E35AFE4F208180919F019091A00109
:1008B00001968F7399279093A00180939F012093B5
:1008C000C600FF91EF919F918F913F912F910F90D3
:1008D0000FBE0F901F901895CF92DF92EF92FF926C
:1008E000CF93DF93EC016A017B01411581EE58073C
:1008F00061057105F9F0EC89FD8981E090E008A0BF
:1009000002C0880F991F0A94E2F7808360E079E0C3
:100910008DE390E0A70196010E941A0B2150310946
:10092000410951095695479537952795211580E13D
:10093000380798F0EC89FD89108260E874E88EE150
:1009400090E0A70196010E941A0B2150310941093C
:1009500051095695479537952795E889F989308348
:10096000EA89FB89208319A2EE89FF89408181E011
:1009700090E09C010C8C02C0220F331F0A94E2F716
:10098000422B4083EE89FF8940819C010D8C02C07F
:10099000220F331F0A94E2F7422B4083EE89FF892E
:1009A00040819C010E8C02C0220F331F0A94E2F793
:1009B000422B4083EE89FF8920810F8C02C0880F73
:1009C000991F0A94E2F7809582238083DF91CF916B
:1009D000FF90EF90DF90CF90089510923E0110921B
:1009E0003D0188EE93E0A0E0B0E080933F0190935A
:1009F0004001A0934101B093420188E291E09093BD
:100A00003C0180933B0181EA91E0909348018093FF
:100A100047018DE591E090934A018093490185EC6F
:100A200090E090934C0180934B0184EC90E0909384
:100A30004E0180934D0180EC90E0909350018093A3
:100A40004F0181EC90E0909352018093510182EC30
:100A500090E0909354018093530186EC90E0909342
:100A600056018093550184E08093570183E0809381
:100A7000580187E08093590185E080935A0181E015
:100A800080935B0108951F920F920FB60F9211246D
:100A90002F933F934F935F936F937F938F939F9386
:100AA000AF93BF93EF93FF938091E60187FF05C05B
:100AB00010928500109284001AC02091E60133271D
:100AC00027FD30958091E50190E0281739077CF4E7
:100AD0008091E601992787FD9095FC01EE0FFF1F9D
:100AE000E80FF91FE951FE4F808186FD15C0809106
:100AF000E6018F5F8093E6012091E601332727FD11
:100B000030958091E50190E028173907BCF4809179
:100B1000E6018C305CF112C08091E601992787FDD7
:100B20009095FC01EE0FFF1FE80FF91FE951FE4FF2
:100B3000808160E08F730E941E08D9CF809184006D
:100B400090918500049680349C4918F480E49CE9D7
:100B500005C080918400909185000496909389004F
:100B6000809388008FEF8093E60138C080918400E5
:100B7000909185002091E601332727FD3095F901FA
:100B8000EE0FFF1FE20FF31FE951FE4F218132816B
:100B9000820F931F90938900809388008091E601D3
:100BA000992787FD9095FC01EE0FFF1FE80FF91FB5
:100BB000E951FE4F808186FF11C08091E60199279F
:100BC00087FD9095FC01EE0FFF1FE80FF91FE9511B
:100BD000FE4F808161E08F730E941E08FF91EF91AC
:100BE000BF91AF919F918F917F916F915F914F9145
:100BF0003F912F910F900FBE0F901F90189520914D
:100C0000E5012C30A0F431E0320F3093E501FC0116
:100C10002083822F90E0FC01EE0FFF1FE80FF91FE9
:100C2000E951FE4F88EB9BE09283818308952FEF7B
:100C3000FC0120830895DF92EF92FF920F931F93A0
:100C4000CF93DF93EC01D62E7A01890188818C3015
:100C500008F066C061E08D2D0E94E5078881A82F0D
:100C6000B0E0FD01EE0FFF1FEA0FFB1FE951FE4F41
:100C70002D2D2F739081907C922B908360E272E0F7
:100C80006E197F0977FF02C06D5F7F4F759567957D
:100C900075956795698340E659E0401B510B57FFF6
:100CA00002C04D5F5F4F55954795559547954A83CF
:100CB0006CE00E940E0B9CE0899FB001112420E0A3
:100CC00030E0A901460F571FFA01EE0FFF1FE40F96
:100CD000F51FE951FE4F908196FD16C02F5F3F4FE3
:100CE0002C30310571F781110FC01092800082E025
:100CF000809381001092850010928400B19A8091B7
:100D00006F00826080936F00888190E0FC01EE0F9D
:100D1000FF1FE80FF91FE951FE4F80818064808337
:100D20008881DF91CF911F910F91FF90EF90DF901D
:100D3000089520E639E040E252E00C941B06FC01E5
:100D400080818C3070F5918128E830E0291B3109D1
:100D500097FD3395220F331F220F331F621773073E
:100D60007CF0928128E532E0291B310997FD33950B
:100D7000220F331F220F331F621773070CF49B01DE
:100D80004FB7F89490E0FC01EE0FFF1FE80FF91F3A
:100D9000E951FE4F22503109220F331F3283218344
:100DA0004FBF08954F925F926F927F92AF92BF9222
:100DB000CF92DF92EF92FF920F931F93CF93DF9327
:100DC000EC01603282E078070CF040C077FD06C08D
:100DD000653B71052CF064EB70E002C060E070E0F0
:100DE000898128E830E0281B310987FD3395220FDF
:100DF000331F220F331F5901CC24B7FCC094DC2CC5
:100E0000882777FD8095982F2A8148E552E0421B7C
:100E1000510927FD5395440F551F440F551F2A01B3
:100E2000662457FC6094762C7F926F925F924F926B
:100E300014EBE12EF12C00E010E020E030E0A901FD
:100E40000E94640A0F900F900F900F90CE01DF91D7
:100E5000CF911F910F91FF90EF90DF90CF90BF90B7
:100E6000AF907F906F905F904F900C949F061F9271
:100E70000F920FB60F9211242F933F938F939F934E
:100E8000AF93BF9380910C0290910D02A0910E023E
:100E9000B0910F0230910B0223E0230F2D3720F485
:100EA0000196A11DB11D05C026E8230F0296A11DC4
:100EB000B11D20930B0280930C0290930D02A0931E
:100EC0000E02B0930F028091100290911102A09136
:100ED0001202B09113020196A11DB11D8093100260
:100EE00090931102A0931202B0931302BF91AF919D
:100EF0009F918F913F912F910F900FBE0F901F9058
:100F00001895789484B5826084BD84B5816084BD71
:100F100085B5826085BD85B5816085BDEEE6F0E072
:100F2000808181608083E1E8F0E0108280818260CE
:100F30008083808181608083E0E8F0E0808181604F
:100F40008083E1EBF0E0808184608083E0EBF0E07F
:100F5000808181608083EAE7F0E080818460808323
:100F600080818260808380818160808380818068CD
:100F700080831092C1000895833081F028F481307D
:100F800099F08230A1F008958630A9F08730B9F049
:100F90008430D1F4809180008F7D03C080918000E7
:100FA0008F7780938000089584B58F7702C084B5D1
:100FB0008F7D84BD08958091B0008F7703C08091AC
:100FC000B0008F7D8093B0000895CF93DF9390E0C1
:100FD000FC01E458FF4F2491FC01E057FF4F84913E
:100FE000882349F190E0880F991FFC01E255FF4FDB
:100FF000A591B4918C559F4FFC01C591D4919FB799
:10100000611108C0F8948C91209582238C9388817B
:1010100082230AC0623051F4F8948C91322F3095BB
:1010200083238C938881822B888304C0F8948C91CD
:10103000822B8C939FBFDF91CF9108950F931F93C5
:10104000CF93DF931F92CDB7DEB7282F30E0F901A1
:10105000E859FF4F8491F901E458FF4F1491F901C9
:10106000E057FF4F04910023C9F0882321F06983E2
:101070000E94BC076981E02FF0E0EE0FFF1FEC55E6
:10108000FF4FA591B4919FB7F8948C91611103C063
:101090001095812301C0812B8C939FBF0F90DF910E
:1010A000CF911F910F9108956F927F928F929F928F
:1010B000AF92BF92CF92DF92EF92FF920F931F9366
:1010C000CF93DF93EC01CB01209781F4DF91CF9197
:1010D0001F910F91FF90EF90DF90CF90BF90AF9056
:1010E0009F908F907F906F900C943D09FE01E60FCA
:1010F000F71F9E0122503109E217F30708F4ACC034
:10110000D9010D911C91119706171707B8F00530FA
:10111000110508F49FC0A80144505109461757070C
:1011200008F498C002501109061B170B0193119384
:101130006D937C93CF010E94D5098CC05B01A01AEE
:10114000B10A4E01800E911EA0911602B0911702B5
:10115000612C712C60E070E0109709F449C0A8156B
:10116000B905C9F5ED90FC901197670142E0C40EF6
:10117000D11CCA14DB0478F147018A189B0864016A
:1011800042E0C40ED11C1296BC9012971396AC91FB
:10119000B5E0CB16D10440F0B282A3839182808265
:1011A000D9018D939C9309C00E5F1F4F0E0D1F1D1B
:1011B000F90111830083EB2DFA2F6115710531F0D0
:1011C000DB011396FC93EE93129744C0F093170241
:1011D000E09316023FC06D917C91119766167706D9
:1011E00008F43B01BD0112960D90BC91A02DB4CF27
:1011F000609114027091150268157905E9F468167A
:101200007906D0F440910A0150910B014115510526
:1012100041F44DB75EB760910E0170910F01461B0E
:10122000570BE417F507C0F4F0931502E09314028E
:10123000F901918380830EC00E943D097C010097D3
:1012400059F0A801BE010E94AE0ACE010E94D50944
:10125000C70104C0CE0102C080E090E0DF91CF91D1
:101260001F910F91FF90EF90DF90CF90BF90AF90C4
:101270009F908F907F906F900895CF93DF938230EF
:10128000910510F482E090E0E0911602F0911702CF
:1012900020E030E0A0E0B0E0309739F140815181AA
:1012A00048175907B8F04817590771F4828193819C
:1012B000109729F013969C938E9312972CC09093BD
:1012C00017028093160227C02115310531F042170D
:1012D000530718F0A901DB0101C0EF019A01BD011C
:1012E000DF010280F381E02DD7CF21153105F9F020
:1012F000281B390B2430310580F48A819B816115CC
:10130000710521F0FB019383828304C0909317023F
:1013100080931602FE01329644C0FE01E20FF31FD5
:101320008193919322503109398328833AC02091C7
:10133000140230911502232B41F420910C013091BD
:101340000D01309315022093140220910A0130916F
:101350000B012115310541F42DB73EB740910E0127
:1013600050910F01241B350BE0911402F0911502EE
:10137000E217F307A0F42E1B3F0B2817390778F06C
:10138000AC014E5F5F4F2417350748F04E0F5F1FCB
:1013900050931502409314028193919302C0E0E0B0
:1013A000F0E0CF01DF91CF910895CF93DF930097C5
:1013B00009F487C0FC01329713821282C091160291
:1013C000D0911702209781F420813181280F391F95
:1013D00080911402909115028217930779F5F0938A
:1013E0001502E09314026DC0DE0120E030E0AE177C
:1013F000BF0750F412964D915C9113979D014115D2
:10140000510509F1DA01F3CFB383A2834081518101
:10141000840F951F8A179B0771F48D919C911197EA
:10142000840F951F02969183808312968D919C91D3
:101430001397938382832115310529F4F0931702C2
:10144000E09316023EC0D9011396FC93EE931297D7
:101450004D915D91A40FB51FEA17FB0779F48081C8
:101460009181840F951F0296D90111969C938E93BA
:101470008281938113969C938E931297E0E0F0E023
:101480008A819B81009719F0FE01EC01F9CFCE0112
:10149000029628813981820F931F20911402309186
:1014A00015022817390769F4309729F410921702AA
:1014B0001092160202C013821282D0931502C093BA
:1014C0001402DF91CF9108954F925F926F927F92B5
:1014D000AF92BF92CF92DF92EF92FF920F931F9342
:1014E000CF93DF93CDB7DEB729013A01621B730BAF
:1014F000840B950B29893A894B895C892A193B0908
:101500004C095D09298B3A8B4B8B5C8B9B01AC01A1
:1015100069897A898B899C890E94FE0AE418F508FA
:1015200006091709A80197010E943C0B2A0D3B1DD3
:101530004C1D5D1DCA01B901DF91CF911F910F9123
:10154000FF90EF90DF90CF90BF90AF907F906F9023
:101550005F904F900895F8940C947B0BFB01DC0195
:1015600002C001900D9241505040D8F70895FB0100
:10157000DC0101900D920020E1F7089545325105FC
:1015800020F4423010F00C94C90AFB011082CB0108
:101590000895BB274A3031F4992322F4BDE2909597
:1015A00081959F4F0C94D50ABB27FB015527AA278D
:1015B000880F991FAA1FA41710F0A41B83955051E0
:1015C000B9F7A05DAA3308F0A95DA193009779F758
:1015D000B111B1931192CB010C94EE0ADC01FC0124
:1015E000672F71917723E1F7329704C07C916D9357
:1015F00070836291AE17BF07C8F30895DB018F9324
:101600009F930E945B0BBF91AF91A29F800D911D94
:10161000A39F900DB29F900D11240895991B79E01E
:1016200004C0991F961708F0961B881F7A95C9F772
:1016300080950895A1E21A2EAA1BBB1BFD010DC0C7
:10164000AA1FBB1FEE1FFF1FA217B307E407F50772
:1016500020F0A21BB30BE40BF50B661F771F881F4E
:10166000991F1A9469F760957095809590959B01E4
:10167000AC01BD01CF010895052E97FB1EF4009427
:101680000E94530B57FD07D00E941A0B07FC03D092
:101690004EF40C94530B50954095309521953F4F47
:1016A0004F4F5F4F089590958095709561957F4F4E
:1016B0008F4F9F4F08950E946C0BA59F900DB49F74
:1016C000900DA49F800D911D11240895EE0FFF1F12
:1016D0000590F491E02D0994A29FB001B39FC00141
:1016E000A39F700D811D1124911DB29F700D811D4E
:0A16F0001124911D0895F894FFCF16
:1016FA00010000000A00C80064000000180280000F
:10170A0072656164790070616E3A20002074696CB8
:10171A00743A200000000000B00369015C038503ED
:04172A006C03A503A4
:00000001FF
